{
  "contractName": "Voting",
  "abi": [
    {
      "constant": false,
      "inputs": [
        {
          "internalType": "uint256",
          "name": "ballotKey",
          "type": "uint256"
        },
        {
          "internalType": "uint256",
          "name": "vote",
          "type": "uint256"
        }
      ],
      "name": "addAnswer",
      "outputs": [
        {
          "internalType": "bool",
          "name": "success",
          "type": "bool"
        }
      ],
      "payable": false,
      "stateMutability": "nonpayable",
      "type": "function"
    },
    {
      "constant": true,
      "inputs": [
        {
          "internalType": "uint256",
          "name": "ballotKey",
          "type": "uint256"
        }
      ],
      "name": "getBallot",
      "outputs": [
        {
          "internalType": "uint256",
          "name": "id",
          "type": "uint256"
        },
        {
          "internalType": "uint256",
          "name": "upVote",
          "type": "uint256"
        },
        {
          "internalType": "uint256",
          "name": "downVote",
          "type": "uint256"
        }
      ],
      "payable": false,
      "stateMutability": "view",
      "type": "function"
    },
    {
      "constant": true,
      "inputs": [
        {
          "internalType": "uint256",
          "name": "ballotKey",
          "type": "uint256"
        }
      ],
      "name": "getBallotAnswerCount",
      "outputs": [
        {
          "internalType": "uint256",
          "name": "answerCount",
          "type": "uint256"
        }
      ],
      "payable": false,
      "stateMutability": "view",
      "type": "function"
    },
    {
      "constant": true,
      "inputs": [],
      "name": "getBallotCount",
      "outputs": [
        {
          "internalType": "uint256",
          "name": "",
          "type": "uint256"
        }
      ],
      "payable": false,
      "stateMutability": "view",
      "type": "function"
    },
    {
      "constant": true,
      "inputs": [],
      "name": "getballotListKeys",
      "outputs": [
        {
          "internalType": "uint256[]",
          "name": "",
          "type": "uint256[]"
        }
      ],
      "payable": false,
      "stateMutability": "view",
      "type": "function"
    },
    {
      "constant": false,
      "inputs": [
        {
          "internalType": "uint256",
          "name": "ballotKey",
          "type": "uint256"
        }
      ],
      "name": "newBallot",
      "outputs": [
        {
          "internalType": "bool",
          "name": "success",
          "type": "bool"
        }
      ],
      "payable": false,
      "stateMutability": "nonpayable",
      "type": "function"
    }
  ],
  "bytecode": "0x608060405234801561001057600080fd5b5061062b806100206000396000f3fe608060405234801561001057600080fd5b50600436106100625760003560e01c80633cfd77e814610067578063b4741495146100ad578063bc10a77e146100cb578063ce4e20dc1461011b578063ee6b74b41461015d578063f9d5ee75146101bc575b600080fd5b6100936004803603602081101561007d57600080fd5b810190808035906020019092919050505061020c565b604051808215151515815260200191505060405180910390f35b6100b56102b7565b6040518082815260200191505060405180910390f35b610101600480360360408110156100e157600080fd5b8101908080359060200190929190803590602001909291905050506102c3565b604051808215151515815260200191505060405180910390f35b6101476004803603602081101561013157600080fd5b81019080803590602001909291905050506104a9565b6040518082815260200191505060405180910390f35b61016561050b565b6040518080602001828103825283818151815260200191508051906020019060200280838360005b838110156101a857808201518184015260208101905061018d565b505050509050019250505060405180910390f35b6101e8600480360360208110156101d257600080fd5b8101908080359060200190929190505050610563565b60405180848152602001838152602001828152602001935050505060405180910390f35b6000816002600082815260200190815260200160002060009054906101000a900460ff161561023a57600080fd5b826001600085815260200190815260200160002060000181905550600083908060018154018082558091505090600182039060005260206000200160009091929091909150555060016002600085815260200190815260200160002060006101000a81548160ff0219169083151502179055506001915050919050565b60008080549050905090565b60006002600084815260200190815260200160002060009054906101000a900460ff166102ef57600080fd5b6001600084815260200190815260200160002060030160003373ffffffffffffffffffffffffffffffffffffffff1673ffffffffffffffffffffffffffffffffffffffff16815260200190815260200160002060009054906101000a900460ff161561035a57600080fd5b60018214156103f757600180600085815260200190815260200160002060010160008282540192505081905550600180600085815260200190815260200160002060030160003373ffffffffffffffffffffffffffffffffffffffff1673ffffffffffffffffffffffffffffffffffffffff16815260200190815260200160002060006101000a81548160ff02191690831515021790555061049e565b600082141561049457600180600085815260200190815260200160002060020160008282540192505081905550600180600085815260200190815260200160002060030160003373ffffffffffffffffffffffffffffffffffffffff1673ffffffffffffffffffffffffffffffffffffffff16815260200190815260200160002060006101000a81548160ff02191690831515021790555061049d565b600090506104a3565b5b600190505b92915050565b60006002600083815260200190815260200160002060009054906101000a900460ff166104d557600080fd5b60016000838152602001908152602001600020600201546001600084815260200190815260200160002060010154019050919050565b6060600080548060200260200160405190810160405280929190818152602001828054801561055957602002820191906000526020600020905b815481526020019060010190808311610545575b5050505050905090565b60008060006002600085815260200190815260200160002060009054906101000a900460ff1661059257600080fd5b600060016000868152602001908152602001600020600001549050600060016000878152602001908152602001600020600101549050600060016000888152602001908152602001600020600201549050828282955095509550505050919390925056fea265627a7a723158209025f987c147485ff69f87d82568fabb4e36a7bb126803f6559fa19ae30b420564736f6c63430005100032",
  "source": "pragma solidity ^0.5.6;\r\n    contract Voting {\r\n     struct Ballot{\r\n        uint id;\r\n        uint upVote;\r\n        uint downVote;\r\n        mapping(address => bool) voters;\r\n    }\r\n    uint[] private ballotListKeys;\r\n    mapping(uint => Ballot) private ballotList;\r\n    mapping(uint => bool) private ballotListStatus;\r\n    \r\n\r\n    function addAnswer ( uint256 ballotKey, uint256 vote ) external returns ( bool success ){\r\n        require(ballotListStatus[ballotKey]);\r\n        require(!ballotList[ballotKey].voters[msg.sender]);\r\n        if(vote == 1) {\r\n            ballotList[ballotKey].upVote += 1;\r\n            ballotList[ballotKey].voters[msg.sender] = true;\r\n            \r\n        }else if(vote == 0){\r\n            ballotList[ballotKey].downVote += 1;\r\n            ballotList[ballotKey].voters[msg.sender] = true;\r\n\r\n        }else{\r\n            return false;\r\n        }\r\n        return true;\r\n    }\r\n  function getBallot ( uint256 ballotKey ) external view returns ( uint256 id, uint256 upVote, uint256 downVote ) {\r\n      require(ballotListStatus[ballotKey]);\r\n      uint ballotId = ballotList[ballotKey].id;\r\n      uint ballotUpVote = ballotList[ballotKey].upVote;\r\n      uint ballotDownVote =  ballotList[ballotKey].downVote;\r\n      return(ballotId,ballotUpVote,ballotDownVote);\r\n       \r\n  }\r\n  function getBallotAnswerCount ( uint256 ballotKey ) external view returns ( uint256 answerCount ){\r\n      require(ballotListStatus[ballotKey]);\r\n      return ballotList[ballotKey].upVote + ballotList[ballotKey].downVote;\r\n  }\r\n  function getBallotCount (  ) external view returns ( uint256 ){\r\n      return ballotListKeys.length;\r\n      \r\n  }\r\n  function getballotListKeys (  ) external view returns ( uint256[] memory ){\r\n      \r\n      return ballotListKeys;\r\n      \r\n  }\r\n  function newBallot ( uint ballotKey ) onlyStatusTrue(ballotKey) public returns ( bool success ){\r\n      ballotList[ballotKey].id = ballotKey;\r\n      ballotListKeys.push(ballotKey);\r\n      ballotListStatus[ballotKey] = true;\r\n      return true;\r\n      \r\n      \r\n  }\r\n    modifier onlyStatusTrue(uint ballotKey) {\r\n        require(!ballotListStatus[ballotKey]);\r\n        _;\r\n    }\r\n   }",
  "sourcePath": "C:/Users/hakan/Desktop/EthereumDevelopment/contracts/Voting.sol",
  "compiler": {
    "name": "solc",
    "version": "0.5.16+commit.9c3226ce.Emscripten.clang"
  },
  "schemaVersion": "3.3.4",
  "updatedAt": "2021-03-15T22:35:37.766Z",
  "networkType": "ethereum",
  "devdoc": {
    "methods": {}
  },
  "userdoc": {
    "methods": {}
  }
}